{
  "contractName": "DCurator",
  "abi": [
    {
      "inputs": [],
      "payable": false,
      "stateMutability": "nonpayable",
      "type": "constructor"
    },
    {
      "constant": false,
      "inputs": [
        {
          "name": "_itemName",
          "type": "string"
        },
        {
          "name": "_itemUrl",
          "type": "string"
        },
        {
          "name": "_curatorName",
          "type": "string"
        },
        {
          "name": "_supportAddress",
          "type": "address"
        }
      ],
      "name": "createItem",
      "outputs": [
        {
          "name": "",
          "type": "uint256"
        }
      ],
      "payable": false,
      "stateMutability": "nonpayable",
      "type": "function"
    },
    {
      "constant": false,
      "inputs": [
        {
          "name": "id",
          "type": "uint256"
        },
        {
          "name": "_vote",
          "type": "bool"
        }
      ],
      "name": "updateVote",
      "outputs": [
        {
          "name": "",
          "type": "uint256"
        }
      ],
      "payable": false,
      "stateMutability": "nonpayable",
      "type": "function"
    },
    {
      "constant": true,
      "inputs": [
        {
          "name": "id",
          "type": "uint256"
        }
      ],
      "name": "getItemById",
      "outputs": [
        {
          "name": "",
          "type": "uint256"
        },
        {
          "name": "",
          "type": "string"
        },
        {
          "name": "",
          "type": "string"
        },
        {
          "name": "",
          "type": "string"
        },
        {
          "name": "",
          "type": "address"
        },
        {
          "name": "",
          "type": "uint256"
        },
        {
          "name": "",
          "type": "uint256"
        },
        {
          "name": "",
          "type": "uint256"
        },
        {
          "name": "",
          "type": "uint256"
        }
      ],
      "payable": false,
      "stateMutability": "view",
      "type": "function"
    },
    {
      "constant": false,
      "inputs": [
        {
          "name": "id",
          "type": "uint256"
        }
      ],
      "name": "updateViews",
      "outputs": [],
      "payable": false,
      "stateMutability": "nonpayable",
      "type": "function"
    },
    {
      "constant": true,
      "inputs": [],
      "name": "getElementCount",
      "outputs": [
        {
          "name": "",
          "type": "uint256"
        }
      ],
      "payable": false,
      "stateMutability": "view",
      "type": "function"
    },
    {
      "constant": false,
      "inputs": [
        {
          "name": "id",
          "type": "uint256"
        }
      ],
      "name": "deleteItem",
      "outputs": [],
      "payable": false,
      "stateMutability": "nonpayable",
      "type": "function"
    },
    {
      "constant": true,
      "inputs": [
        {
          "name": "name",
          "type": "string"
        }
      ],
      "name": "getAllByCuratorName",
      "outputs": [
        {
          "name": "",
          "type": "uint256[]"
        }
      ],
      "payable": false,
      "stateMutability": "view",
      "type": "function"
    },
    {
      "constant": false,
      "inputs": [
        {
          "name": "to",
          "type": "address"
        },
        {
          "name": "ammount",
          "type": "uint256"
        }
      ],
      "name": "transfer",
      "outputs": [
        {
          "name": "",
          "type": "string"
        }
      ],
      "payable": false,
      "stateMutability": "nonpayable",
      "type": "function"
    },
    {
      "constant": false,
      "inputs": [
        {
          "name": "ammount",
          "type": "uint256"
        }
      ],
      "name": "requestTokens",
      "outputs": [
        {
          "name": "",
          "type": "string"
        }
      ],
      "payable": false,
      "stateMutability": "nonpayable",
      "type": "function"
    },
    {
      "constant": true,
      "inputs": [
        {
          "name": "adr",
          "type": "address"
        }
      ],
      "name": "getTokenAmmount",
      "outputs": [
        {
          "name": "",
          "type": "uint256"
        }
      ],
      "payable": false,
      "stateMutability": "view",
      "type": "function"
    },
    {
      "constant": true,
      "inputs": [],
      "name": "getSupply",
      "outputs": [
        {
          "name": "",
          "type": "uint256"
        }
      ],
      "payable": false,
      "stateMutability": "view",
      "type": "function"
    },
    {
      "constant": true,
      "inputs": [],
      "name": "getCurrentTokens",
      "outputs": [
        {
          "name": "",
          "type": "uint256"
        }
      ],
      "payable": false,
      "stateMutability": "view",
      "type": "function"
    }
  ],
  "bytecode": "0x608060405234801561001057600080fd5b506000600281905550336000806101000a81548173ffffffffffffffffffffffffffffffffffffffff021916908373ffffffffffffffffffffffffffffffffffffffff160217905550612710600160008060009054906101000a900473ffffffffffffffffffffffffffffffffffffffff1673ffffffffffffffffffffffffffffffffffffffff1673ffffffffffffffffffffffffffffffffffffffff16815260200190815260200160002081905550611749806100cf6000396000f3006080604052600436106100ba576000357c0100000000000000000000000000000000000000000000000000000000900463ffffffff168063196a3735146100bf5780633ec76857146100ec578063489d6dac14610117578063654fc83314610164578063673f0d82146101915780636c9c2faf14610230578063a9059cbb1461025b578063b8aa204b14610321578063bc355d8c146103df578063cc77828d14610436578063cd2f071014610461578063eef9c27c14610635575b600080fd5b3480156100cb57600080fd5b506100ea600480360381019080803590602001909291905050506106db565b005b3480156100f857600080fd5b50610101610703565b6040518082815260200191505060405180910390f35b34801561012357600080fd5b5061014e6004803603810190808035906020019092919080351515906020019092919050505061070d565b6040518082815260200191505060405180910390f35b34801561017057600080fd5b5061018f600480360381019080803590602001909291905050506107d9565b005b34801561019d57600080fd5b5061021a600480360381019080803590602001908201803590602001919091929391929390803590602001908201803590602001919091929391929390803590602001908201803590602001919091929391929390803573ffffffffffffffffffffffffffffffffffffffff169060200190929190505050610970565b6040518082815260200191505060405180910390f35b34801561023c57600080fd5b50610245610b81565b6040518082815260200191505060405180910390f35b34801561026757600080fd5b506102a6600480360381019080803573ffffffffffffffffffffffffffffffffffffffff16906020019092919080359060200190929190505050610be9565b6040518080602001828103825283818151815260200191508051906020019080838360005b838110156102e65780820151818401526020810190506102cb565b50505050905090810190601f1680156103135780820380516001836020036101000a031916815260200191505b509250505060405180910390f35b34801561032d57600080fd5b50610388600480360381019080803590602001908201803590602001908080601f0160208091040260200160405190810160405280939291908181526020018383808284378201915050505050509192919290505050610d0b565b6040518080602001828103825283818151815260200191508051906020019060200280838360005b838110156103cb5780820151818401526020810190506103b0565b505050509050019250505060405180910390f35b3480156103eb57600080fd5b50610420600480360381019080803573ffffffffffffffffffffffffffffffffffffffff169060200190929190505050611070565b6040518082815260200191505060405180910390f35b34801561044257600080fd5b5061044b6110b9565b6040518082815260200191505060405180910390f35b34801561046d57600080fd5b5061048c60048036038101908080359060200190929190505050611100565b604051808a81526020018060200180602001806020018973ffffffffffffffffffffffffffffffffffffffff1673ffffffffffffffffffffffffffffffffffffffff16815260200188815260200187815260200186815260200185815260200184810384528c818151815260200191508051906020019080838360005b83811015610524578082015181840152602081019050610509565b50505050905090810190601f1680156105515780820380516001836020036101000a031916815260200191505b5084810383528b818151815260200191508051906020019080838360005b8381101561058a57808201518184015260208101905061056f565b50505050905090810190601f1680156105b75780820380516001836020036101000a031916815260200191505b5084810382528a818151815260200191508051906020019080838360005b838110156105f05780820151818401526020810190506105d5565b50505050905090810190601f16801561061d5780820380516001836020036101000a031916815260200191505b509c5050505050505050505050505060405180910390f35b34801561064157600080fd5b50610660600480360381019080803590602001909291905050506113fa565b6040518080602001828103825283818151815260200191508051906020019080838360005b838110156106a0578082015181840152602081019050610685565b50505050905090810190601f1680156106cd5780820380516001836020036101000a031916815260200191505b509250505060405180910390f35b6001600360008381526020019081526020016000206005016000828254019250508190555050565b6000600254905090565b6000806000600160036000878152602001908152602001600020600601600082825401925050819055506003600086815260200190815260200160002060060154600360008781526020019081526020016000206007015481151561076e57fe5b0491508315610797578160036000878152602001908152602001600020600701540190506107b3565b8160036000878152602001908152602001600020600701540390505b806003600087815260200190815260200160002060070181905550809250505092915050565b6003600082815260200190815260200160002060040160009054906101000a900473ffffffffffffffffffffffffffffffffffffffff1673ffffffffffffffffffffffffffffffffffffffff163373ffffffffffffffffffffffffffffffffffffffff161415156108d8576040517f08c379a00000000000000000000000000000000000000000000000000000000081526004018080602001828103825260228152602001807f4f6e6c792063757261746f722063616e2064656c65746520697427732069746581526020017f6d2e00000000000000000000000000000000000000000000000000000000000081525060400191505060405180910390fd5b6003600082815260200190815260200160002060008082016000905560018201600061090491906115cd565b60028201600061091491906115cd565b60038201600061092491906115cd565b6004820160006101000a81549073ffffffffffffffffffffffffffffffffffffffff02191690556005820160009055600682016000905560078201600090556008820160009055505050565b60008061097b611615565b60026000815480929190600101919050559150610120604051908101604052808381526020018b8b8080601f016020809104026020016040519081016040528093929190818152602001838380828437820191505050505050815260200189898080601f016020809104026020016040519081016040528093929190818152602001838380828437820191505050505050815260200187878080601f01602080910402602001604051908101604052809392919081815260200183838082843782019150505050505081526020018573ffffffffffffffffffffffffffffffffffffffff16815260200160008152602001600081526020016005815260200160008152509050806003600083600001518152602001908152602001600020600082015181600001556020820151816001019080519060200190610abf929190611678565b506040820151816002019080519060200190610adc929190611678565b506060820151816003019080519060200190610af9929190611678565b5060808201518160040160006101000a81548173ffffffffffffffffffffffffffffffffffffffff021916908373ffffffffffffffffffffffffffffffffffffffff16021790555060a0820151816005015560c0820151816006015560e082015181600701556101008201518160080155905050806000015192505050979650505050505050565b6000600160008060009054906101000a900473ffffffffffffffffffffffffffffffffffffffff1673ffffffffffffffffffffffffffffffffffffffff1673ffffffffffffffffffffffffffffffffffffffff16815260200190815260200160002054905090565b6060600082111515610bfa57600080fd5b600082600160003373ffffffffffffffffffffffffffffffffffffffff1673ffffffffffffffffffffffffffffffffffffffff1681526020019081526020016000205403111515610c4a57600080fd5b81600160008573ffffffffffffffffffffffffffffffffffffffff1673ffffffffffffffffffffffffffffffffffffffff1681526020019081526020016000206000828254019250508190555081600160008060009054906101000a900473ffffffffffffffffffffffffffffffffffffffff1673ffffffffffffffffffffffffffffffffffffffff1673ffffffffffffffffffffffffffffffffffffffff1681526020019081526020016000206000828254039250508190555092915050565b6060806000806060600254604051908082528060200260200182016040528015610d445781602001602082028038833980820191505090505b509350600092505b600254831015610da0577fffffffffffffffffffffffffffffffffffffffffffffffffffffffffffffffff8484815181101515610d8557fe5b90602001906020020181815250508280600101935050610d4c565b60009150600092505b600254831015610fae57856040516020018082805190602001908083835b602083101515610dec5780518252602082019150602081019050602083039250610dc7565b6001836020036101000a0380198251168184511680821785525050505050509050019150506040516020818303038152906040526040518082805190602001908083835b602083101515610e555780518252602082019150602081019050602083039250610e30565b6001836020036101000a038019825116818451168082178552505050505050905001915050604051809103902060001916600360008581526020019081526020016000206003016040516020018082805460018160011615610100020316600290048015610efa5780601f10610ed8576101008083540402835291820191610efa565b820191906000526020600020905b815481529060010190602001808311610ee6575b50509150506040516020818303038152906040526040518082805190602001908083835b602083101515610f435780518252602082019150602081019050602083039250610f1e565b6001836020036101000a0380198251168184511680821785525050505050509050019150506040518091039020600019161415610fa15760018484815181101515610f8a57fe5b906020019060200201818152505081806001019250505b8280600101935050610da9565b81604051908082528060200260200182016040528015610fdd5781602001602082028038833980820191505090505b50905060009150600092505b600254831015611064577fffffffffffffffffffffffffffffffffffffffffffffffffffffffffffffffff848481518110151561102257fe5b906020019060200201511415156110575782818380600101945081518110151561104857fe5b90602001906020020181815250505b8280600101935050610fe9565b80945050505050919050565b6000600160008373ffffffffffffffffffffffffffffffffffffffff1673ffffffffffffffffffffffffffffffffffffffff168152602001908152602001600020549050919050565b6000600160003373ffffffffffffffffffffffffffffffffffffffff1673ffffffffffffffffffffffffffffffffffffffff16815260200190815260200160002054905090565b600060608060606000806000806000611117611615565b600360008c8152602001908152602001600020610120604051908101604052908160008201548152602001600182018054600181600116156101000203166002900480601f0160208091040260200160405190810160405280929190818152602001828054600181600116156101000203166002900480156111da5780601f106111af576101008083540402835291602001916111da565b820191906000526020600020905b8154815290600101906020018083116111bd57829003601f168201915b50505050508152602001600282018054600181600116156101000203166002900480601f01602080910402602001604051908101604052809291908181526020018280546001816001161561010002031660029004801561127c5780601f106112515761010080835404028352916020019161127c565b820191906000526020600020905b81548152906001019060200180831161125f57829003601f168201915b50505050508152602001600382018054600181600116156101000203166002900480601f01602080910402602001604051908101604052809291908181526020018280546001816001161561010002031660029004801561131e5780601f106112f35761010080835404028352916020019161131e565b820191906000526020600020905b81548152906001019060200180831161130157829003601f168201915b505050505081526020016004820160009054906101000a900473ffffffffffffffffffffffffffffffffffffffff1673ffffffffffffffffffffffffffffffffffffffff1673ffffffffffffffffffffffffffffffffffffffff16815260200160058201548152602001600682015481526020016007820154815260200160088201548152505090508a81602001518260400151836060015184608001518560a001518660c001518760e00151886101000151879750869650859550995099509950995099509950995099509950509193959799909294969850565b606060008211151561140b57600080fd5b600082600160008060009054906101000a900473ffffffffffffffffffffffffffffffffffffffff1673ffffffffffffffffffffffffffffffffffffffff1673ffffffffffffffffffffffffffffffffffffffff168152602001908152602001600020540311151561147c57600080fd5b81600160003373ffffffffffffffffffffffffffffffffffffffff1673ffffffffffffffffffffffffffffffffffffffff1681526020019081526020016000205401600160003373ffffffffffffffffffffffffffffffffffffffff1673ffffffffffffffffffffffffffffffffffffffff1681526020019081526020016000208190555081600160008060009054906101000a900473ffffffffffffffffffffffffffffffffffffffff1673ffffffffffffffffffffffffffffffffffffffff1673ffffffffffffffffffffffffffffffffffffffff1681526020019081526020016000205403600160008060009054906101000a900473ffffffffffffffffffffffffffffffffffffffff1673ffffffffffffffffffffffffffffffffffffffff1673ffffffffffffffffffffffffffffffffffffffff16815260200190815260200160002081905550919050565b50805460018160011615610100020316600290046000825580601f106115f35750611612565b601f01602090049060005260206000209081019061161191906116f8565b5b50565b6101206040519081016040528060008152602001606081526020016060815260200160608152602001600073ffffffffffffffffffffffffffffffffffffffff168152602001600081526020016000815260200160008152602001600081525090565b828054600181600116156101000203166002900490600052602060002090601f016020900481019282601f106116b957805160ff19168380011785556116e7565b828001600101855582156116e7579182015b828111156116e65782518255916020019190600101906116cb565b5b5090506116f491906116f8565b5090565b61171a91905b808211156117165760008160009055506001016116fe565b5090565b905600a165627a7a723058203ffa286ae3b0ad75b2254b89c7ed0206b52bb7a7b528e320d441f971a34ab0440029",
  "source": "pragma solidity ^0.4.24;\r\n\r\ncontract DCurator {\r\n    \r\n    // Token variables\r\n    address creator;\r\n    mapping(address => uint) private tokens;\r\n    \r\n    // Curator items\r\n    struct Item {\r\n        uint id;\r\n        string itemName;\r\n        string itemUrl;\r\n        string curatorName;\r\n        address supportAddress;\r\n        uint views; // views\r\n        uint votes; // count of votes\r\n        uint rank; // this is calculated rank based on views/votes\r\n        uint contentType; // default is 0 which is video\r\n        // TODO image object stored in ipfs\r\n    }\r\n    \r\n    uint itemId;\r\n    mapping(uint => Item) items;\r\n    \r\n    constructor() public {\r\n        itemId = 0;\r\n        creator = msg.sender;\r\n        tokens[creator] = 10000;\r\n    }\r\n    \r\n    // validate input with \r\n    // CreateItem -> 1 test\r\n    function createItem(string _itemName, string _itemUrl, string _curatorName,\r\n        address _supportAddress) external returns (uint) {  // TODO add input ipfs image\r\n        uint id = itemId++;\r\n        Item memory it = Item({id:id, itemName:_itemName, itemUrl:_itemUrl, curatorName:_curatorName, supportAddress: _supportAddress, \r\n        views: 0, votes: 0, rank: 5, contentType:0});\r\n        items[it.id] = it;\r\n        return it.id;\r\n    }\r\n  \r\n    // Update vote -> 2 unit tests\r\n    function updateVote(uint id, bool _vote) external returns(uint256){\r\n        items[id].votes += 1;\r\n        uint delta = items[id].rank / items[id].votes;\r\n        uint256 newRank;\r\n        if(_vote) {\r\n            newRank = items[id].rank + delta;\r\n        } else {\r\n            newRank = items[id].rank - delta;\r\n        }\r\n        items[id].rank = newRank;\r\n\t\treturn newRank;\r\n    }\r\n    \r\n    // Return item by id\r\n    function getItemById(uint id) view public returns(uint, string, string, string, address, uint, uint, uint, uint) {\r\n        Item memory item = items[id];\r\n        return (id, item.itemName, item.itemUrl, item.curatorName, item.supportAddress, item.views, \r\n            item.votes, item.rank, item.contentType );\r\n    }\r\n    \r\n    // Update item views\r\n    function updateViews(uint id) external {\r\n        items[id].views += 1;\r\n    }\r\n     \r\n    // getElementCount   \r\n    function getElementCount() public view returns(uint) {\r\n        return itemId;\r\n    }\r\n    \r\n    // delete item restrict to owner\r\n    function deleteItem(uint id) public  {\r\n        require(\r\n            msg.sender == items[id].supportAddress,\r\n            \"Only curator can delete it's item.\"\r\n        );\r\n        delete items[id];\r\n    }\r\n    \r\n    // getAllByCuratorName\r\n    function getAllByCuratorName(string name) public view returns(uint[]) {\r\n        int[] memory curatorItems = new int[](itemId);\r\n        for(uint i=0;i<itemId;i++) {\r\n            curatorItems[i] = -1;\r\n        }\r\n        \r\n        uint j = 0;\r\n        for(i=0;i<itemId;i++) {\r\n            if(keccak256(abi.encodePacked(items[i].curatorName)) == keccak256(abi.encodePacked(name))) {\r\n                curatorItems[i]=1;\r\n                j++;\r\n            }\r\n        }\r\n        \r\n        uint[] memory finalItems = new uint[](j);\r\n        j=0;\r\n        for(i=0; i<itemId; i++) {\r\n            if(curatorItems[i] != -1) {\r\n                finalItems[j++] = i;\r\n            }\r\n        }\r\n        return finalItems;\r\n    }\r\n    \r\n    \r\n    function transfer(address to, uint ammount) external returns (string) {\r\n        require(ammount > 0);\r\n        require(tokens[msg.sender] - ammount > 0);\r\n\t\t\r\n        tokens[to] += ammount;\r\n        tokens[creator] -= ammount;\r\n    }\r\n    \r\n    function requestTokens(uint ammount) external returns (string) {\r\n        require(ammount > 0);\r\n        require(tokens[creator] - ammount > 0);\r\n\t\t\r\n\t\ttokens[msg.sender] = tokens[msg.sender] + ammount;\r\n\t\ttokens[creator] = tokens[creator] - ammount; \r\n    }\r\n    \r\n    function getTokenAmmount(address adr) view external returns(uint) {\r\n        return tokens[adr];\r\n    }\r\n    \r\n    function getSupply() view external returns (uint) \r\n    {\r\n        return tokens[creator];\r\n    }\r\n    \r\n    function getCurrentTokens() view external returns (uint) \r\n    {\r\n        return tokens[msg.sender];\r\n    }\r\n}",
  "sourcePath": "C:\\dev\\workspaces\\blockchain-marketplace\\distributed-marketplace\\truffle\\contracts\\DCurator.sol",
  "compiler": {
    "name": "solc",
    "version": "0.4.24+commit.e67f0147.Emscripten.clang"
  },
  "schemaVersion": "2.0.1",
  "updatedAt": "2018-07-13T10:08:14.179Z"
}