{
  "contractName": "DCurator",
  "abi": [
    {
      "inputs": [],
      "payable": false,
      "stateMutability": "nonpayable",
      "type": "constructor"
    },
    {
      "constant": false,
      "inputs": [
        {
          "name": "_itemName",
          "type": "string"
        },
        {
          "name": "_itemUrl",
          "type": "string"
        },
        {
          "name": "_curatorName",
          "type": "string"
        },
        {
          "name": "_supportAddress",
          "type": "address"
        },
        {
          "name": "_ipfsHash",
          "type": "string"
        }
      ],
      "name": "createItem",
      "outputs": [
        {
          "name": "",
          "type": "uint256"
        }
      ],
      "payable": false,
      "stateMutability": "nonpayable",
      "type": "function"
    },
    {
      "constant": false,
      "inputs": [
        {
          "name": "id",
          "type": "uint256"
        },
        {
          "name": "_vote",
          "type": "bool"
        }
      ],
      "name": "updateVote",
      "outputs": [
        {
          "name": "",
          "type": "uint256"
        }
      ],
      "payable": false,
      "stateMutability": "nonpayable",
      "type": "function"
    },
    {
      "constant": true,
      "inputs": [
        {
          "name": "id",
          "type": "uint256"
        }
      ],
      "name": "getItemById",
      "outputs": [
        {
          "name": "",
          "type": "uint256"
        },
        {
          "name": "",
          "type": "string"
        },
        {
          "name": "",
          "type": "string"
        },
        {
          "name": "",
          "type": "string"
        },
        {
          "name": "",
          "type": "address"
        },
        {
          "name": "",
          "type": "uint256"
        },
        {
          "name": "",
          "type": "uint256"
        },
        {
          "name": "",
          "type": "uint256"
        },
        {
          "name": "",
          "type": "uint256"
        },
        {
          "name": "",
          "type": "string"
        }
      ],
      "payable": false,
      "stateMutability": "view",
      "type": "function"
    },
    {
      "constant": false,
      "inputs": [
        {
          "name": "id",
          "type": "uint256"
        }
      ],
      "name": "updateViews",
      "outputs": [],
      "payable": false,
      "stateMutability": "nonpayable",
      "type": "function"
    },
    {
      "constant": true,
      "inputs": [],
      "name": "getElementCount",
      "outputs": [
        {
          "name": "",
          "type": "uint256"
        }
      ],
      "payable": false,
      "stateMutability": "view",
      "type": "function"
    },
    {
      "constant": false,
      "inputs": [
        {
          "name": "id",
          "type": "uint256"
        }
      ],
      "name": "deleteItem",
      "outputs": [],
      "payable": false,
      "stateMutability": "nonpayable",
      "type": "function"
    },
    {
      "constant": true,
      "inputs": [
        {
          "name": "name",
          "type": "string"
        }
      ],
      "name": "getAllByCuratorName",
      "outputs": [
        {
          "name": "",
          "type": "uint256[]"
        }
      ],
      "payable": false,
      "stateMutability": "view",
      "type": "function"
    },
    {
      "constant": false,
      "inputs": [
        {
          "name": "to",
          "type": "address"
        },
        {
          "name": "ammount",
          "type": "uint256"
        }
      ],
      "name": "transfer",
      "outputs": [
        {
          "name": "",
          "type": "string"
        }
      ],
      "payable": false,
      "stateMutability": "nonpayable",
      "type": "function"
    },
    {
      "constant": false,
      "inputs": [
        {
          "name": "ammount",
          "type": "uint256"
        }
      ],
      "name": "requestTokens",
      "outputs": [
        {
          "name": "",
          "type": "string"
        }
      ],
      "payable": false,
      "stateMutability": "nonpayable",
      "type": "function"
    },
    {
      "constant": true,
      "inputs": [
        {
          "name": "adr",
          "type": "address"
        }
      ],
      "name": "getTokenAmmount",
      "outputs": [
        {
          "name": "",
          "type": "uint256"
        }
      ],
      "payable": false,
      "stateMutability": "view",
      "type": "function"
    },
    {
      "constant": true,
      "inputs": [],
      "name": "getSupply",
      "outputs": [
        {
          "name": "",
          "type": "uint256"
        }
      ],
      "payable": false,
      "stateMutability": "view",
      "type": "function"
    },
    {
      "constant": true,
      "inputs": [],
      "name": "getCurrentTokens",
      "outputs": [
        {
          "name": "",
          "type": "uint256"
        }
      ],
      "payable": false,
      "stateMutability": "view",
      "type": "function"
    }
  ],
  "bytecode": "0x608060405234801561001057600080fd5b506000600281905550336000806101000a81548173ffffffffffffffffffffffffffffffffffffffff021916908373ffffffffffffffffffffffffffffffffffffffff160217905550612710600160008060009054906101000a900473ffffffffffffffffffffffffffffffffffffffff1673ffffffffffffffffffffffffffffffffffffffff1673ffffffffffffffffffffffffffffffffffffffff168152602001908152602001600020819055506118e7806100cf6000396000f3006080604052600436106100ba576000357c0100000000000000000000000000000000000000000000000000000000900463ffffffff168063070c2161146100bf578063196a3735146101765780633ec76857146101a3578063489d6dac146101ce578063654fc8331461021b5780636c9c2faf14610248578063a9059cbb14610273578063b8aa204b14610339578063bc355d8c146103f7578063cc77828d1461044e578063cd2f071014610479578063eef9c27c146106b9575b600080fd5b3480156100cb57600080fd5b50610160600480360381019080803590602001908201803590602001919091929391929390803590602001908201803590602001919091929391929390803590602001908201803590602001919091929391929390803573ffffffffffffffffffffffffffffffffffffffff16906020019092919080359060200190820180359060200191909192939192939050505061075f565b6040518082815260200191505060405180910390f35b34801561018257600080fd5b506101a1600480360381019080803590602001909291905050506109c8565b005b3480156101af57600080fd5b506101b86109f0565b6040518082815260200191505060405180910390f35b3480156101da57600080fd5b50610205600480360381019080803590602001909291908035151590602001909291905050506109fa565b6040518082815260200191505060405180910390f35b34801561022757600080fd5b5061024660048036038101908080359060200190929190505050610ac6565b005b34801561025457600080fd5b5061025d610c6d565b6040518082815260200191505060405180910390f35b34801561027f57600080fd5b506102be600480360381019080803573ffffffffffffffffffffffffffffffffffffffff16906020019092919080359060200190929190505050610cd5565b6040518080602001828103825283818151815260200191508051906020019080838360005b838110156102fe5780820151818401526020810190506102e3565b50505050905090810190601f16801561032b5780820380516001836020036101000a031916815260200191505b509250505060405180910390f35b34801561034557600080fd5b506103a0600480360381019080803590602001908201803590602001908080601f0160208091040260200160405190810160405280939291908181526020018383808284378201915050505050509192919290505050610df5565b6040518080602001828103825283818151815260200191508051906020019060200280838360005b838110156103e35780820151818401526020810190506103c8565b505050509050019250505060405180910390f35b34801561040357600080fd5b50610438600480360381019080803573ffffffffffffffffffffffffffffffffffffffff16906020019092919050505061115a565b6040518082815260200191505060405180910390f35b34801561045a57600080fd5b506104636111a3565b6040518082815260200191505060405180910390f35b34801561048557600080fd5b506104a4600480360381019080803590602001909291905050506111ea565b604051808b81526020018060200180602001806020018a73ffffffffffffffffffffffffffffffffffffffff1673ffffffffffffffffffffffffffffffffffffffff1681526020018981526020018881526020018781526020018681526020018060200185810385528e818151815260200191508051906020019080838360005b83811015610540578082015181840152602081019050610525565b50505050905090810190601f16801561056d5780820380516001836020036101000a031916815260200191505b5085810384528d818151815260200191508051906020019080838360005b838110156105a657808201518184015260208101905061058b565b50505050905090810190601f1680156105d35780820380516001836020036101000a031916815260200191505b5085810383528c818151815260200191508051906020019080838360005b8381101561060c5780820151818401526020810190506105f1565b50505050905090810190601f1680156106395780820380516001836020036101000a031916815260200191505b50858103825286818151815260200191508051906020019080838360005b83811015610672578082015181840152602081019050610657565b50505050905090810190601f16801561069f5780820380516001836020036101000a031916815260200191505b509e50505050505050505050505050505060405180910390f35b3480156106c557600080fd5b506106e460048036038101908080359060200190929190505050611593565b6040518080602001828103825283818151815260200191508051906020019080838360005b83811015610724578082015181840152602081019050610709565b50505050905090810190601f1680156107515780820380516001836020036101000a031916815260200191505b509250505060405180910390f35b60008061076a611764565b60026000815480929190600101919050559150610140604051908101604052808381526020018d8d8080601f01602080910402602001604051908101604052809392919081815260200183838082843782019150505050505081526020018b8b8080601f016020809104026020016040519081016040528093929190818152602001838380828437820191505050505050815260200189898080601f01602080910402602001604051908101604052809392919081815260200183838082843782019150505050505081526020018773ffffffffffffffffffffffffffffffffffffffff1681526020016000815260200160008152602001600581526020016000815260200186868080601f01602080910402602001604051908101604052809392919081815260200183838082843782019150505050505081525090508060036000836000015181526020019081526020016000206000820151816000015560208201518160010190805190602001906108e69291906117ce565b5060408201518160020190805190602001906109039291906117ce565b5060608201518160030190805190602001906109209291906117ce565b5060808201518160040160006101000a81548173ffffffffffffffffffffffffffffffffffffffff021916908373ffffffffffffffffffffffffffffffffffffffff16021790555060a0820151816005015560c0820151816006015560e0820151816007015561010082015181600801556101208201518160090190805190602001906109ae9291906117ce565b509050508060000151925050509998505050505050505050565b6001600360008381526020019081526020016000206005016000828254019250508190555050565b6000600254905090565b60008060006001600360008781526020019081526020016000206006016000828254019250508190555060036000868152602001908152602001600020600601546003600087815260200190815260200160002060070154811515610a5b57fe5b0491508315610a8457816003600087815260200190815260200160002060070154019050610aa0565b8160036000878152602001908152602001600020600701540390505b806003600087815260200190815260200160002060070181905550809250505092915050565b6003600082815260200190815260200160002060040160009054906101000a900473ffffffffffffffffffffffffffffffffffffffff1673ffffffffffffffffffffffffffffffffffffffff163373ffffffffffffffffffffffffffffffffffffffff16141515610bc5576040517f08c379a00000000000000000000000000000000000000000000000000000000081526004018080602001828103825260228152602001807f4f6e6c792063757261746f722063616e2064656c65746520697427732069746581526020017f6d2e00000000000000000000000000000000000000000000000000000000000081525060400191505060405180910390fd5b60036000828152602001908152602001600020600080820160009055600182016000610bf1919061184e565b600282016000610c01919061184e565b600382016000610c11919061184e565b6004820160006101000a81549073ffffffffffffffffffffffffffffffffffffffff02191690556005820160009055600682016000905560078201600090556008820160009055600982016000610c68919061184e565b505050565b6000600160008060009054906101000a900473ffffffffffffffffffffffffffffffffffffffff1673ffffffffffffffffffffffffffffffffffffffff1673ffffffffffffffffffffffffffffffffffffffff16815260200190815260200160002054905090565b6060600082111515610ce657600080fd5b81600160003373ffffffffffffffffffffffffffffffffffffffff1673ffffffffffffffffffffffffffffffffffffffff1681526020019081526020016000205410151515610d3457600080fd5b81600160008573ffffffffffffffffffffffffffffffffffffffff1673ffffffffffffffffffffffffffffffffffffffff1681526020019081526020016000206000828254019250508190555081600160008060009054906101000a900473ffffffffffffffffffffffffffffffffffffffff1673ffffffffffffffffffffffffffffffffffffffff1673ffffffffffffffffffffffffffffffffffffffff1681526020019081526020016000206000828254039250508190555092915050565b6060806000806060600254604051908082528060200260200182016040528015610e2e5781602001602082028038833980820191505090505b509350600092505b600254831015610e8a577fffffffffffffffffffffffffffffffffffffffffffffffffffffffffffffffff8484815181101515610e6f57fe5b90602001906020020181815250508280600101935050610e36565b60009150600092505b60025483101561109857856040516020018082805190602001908083835b602083101515610ed65780518252602082019150602081019050602083039250610eb1565b6001836020036101000a0380198251168184511680821785525050505050509050019150506040516020818303038152906040526040518082805190602001908083835b602083101515610f3f5780518252602082019150602081019050602083039250610f1a565b6001836020036101000a038019825116818451168082178552505050505050905001915050604051809103902060001916600360008581526020019081526020016000206003016040516020018082805460018160011615610100020316600290048015610fe45780601f10610fc2576101008083540402835291820191610fe4565b820191906000526020600020905b815481529060010190602001808311610fd0575b50509150506040516020818303038152906040526040518082805190602001908083835b60208310151561102d5780518252602082019150602081019050602083039250611008565b6001836020036101000a038019825116818451168082178552505050505050905001915050604051809103902060001916141561108b576001848481518110151561107457fe5b906020019060200201818152505081806001019250505b8280600101935050610e93565b816040519080825280602002602001820160405280156110c75781602001602082028038833980820191505090505b50905060009150600092505b60025483101561114e577fffffffffffffffffffffffffffffffffffffffffffffffffffffffffffffffff848481518110151561110c57fe5b906020019060200201511415156111415782818380600101945081518110151561113257fe5b90602001906020020181815250505b82806001019350506110d3565b80945050505050919050565b6000600160008373ffffffffffffffffffffffffffffffffffffffff1673ffffffffffffffffffffffffffffffffffffffff168152602001908152602001600020549050919050565b6000600160003373ffffffffffffffffffffffffffffffffffffffff1673ffffffffffffffffffffffffffffffffffffffff16815260200190815260200160002054905090565b6000606080606060008060008060006060611203611764565b600360008d8152602001908152602001600020610140604051908101604052908160008201548152602001600182018054600181600116156101000203166002900480601f0160208091040260200160405190810160405280929190818152602001828054600181600116156101000203166002900480156112c65780601f1061129b576101008083540402835291602001916112c6565b820191906000526020600020905b8154815290600101906020018083116112a957829003601f168201915b50505050508152602001600282018054600181600116156101000203166002900480601f0160208091040260200160405190810160405280929190818152602001828054600181600116156101000203166002900480156113685780601f1061133d57610100808354040283529160200191611368565b820191906000526020600020905b81548152906001019060200180831161134b57829003601f168201915b50505050508152602001600382018054600181600116156101000203166002900480601f01602080910402602001604051908101604052809291908181526020018280546001816001161561010002031660029004801561140a5780601f106113df5761010080835404028352916020019161140a565b820191906000526020600020905b8154815290600101906020018083116113ed57829003601f168201915b505050505081526020016004820160009054906101000a900473ffffffffffffffffffffffffffffffffffffffff1673ffffffffffffffffffffffffffffffffffffffff1673ffffffffffffffffffffffffffffffffffffffff16815260200160058201548152602001600682015481526020016007820154815260200160088201548152602001600982018054600181600116156101000203166002900480601f01602080910402602001604051908101604052809291908181526020018280546001816001161561010002031660029004801561152a5780601f106114ff5761010080835404028352916020019161152a565b820191906000526020600020905b81548152906001019060200180831161150d57829003601f168201915b50505050508152505090508b81602001518260400151836060015184608001518560a001518660c001518760e001518861010001518961012001518898508797508696508090509a509a509a509a509a509a509a509a509a509a50509193959799509193959799565b60606000821115156115a457600080fd5b81600160008060009054906101000a900473ffffffffffffffffffffffffffffffffffffffff1673ffffffffffffffffffffffffffffffffffffffff1673ffffffffffffffffffffffffffffffffffffffff168152602001908152602001600020541015151561161357600080fd5b81600160003373ffffffffffffffffffffffffffffffffffffffff1673ffffffffffffffffffffffffffffffffffffffff1681526020019081526020016000205401600160003373ffffffffffffffffffffffffffffffffffffffff1673ffffffffffffffffffffffffffffffffffffffff1681526020019081526020016000208190555081600160008060009054906101000a900473ffffffffffffffffffffffffffffffffffffffff1673ffffffffffffffffffffffffffffffffffffffff1673ffffffffffffffffffffffffffffffffffffffff1681526020019081526020016000205403600160008060009054906101000a900473ffffffffffffffffffffffffffffffffffffffff1673ffffffffffffffffffffffffffffffffffffffff1673ffffffffffffffffffffffffffffffffffffffff16815260200190815260200160002081905550919050565b6101406040519081016040528060008152602001606081526020016060815260200160608152602001600073ffffffffffffffffffffffffffffffffffffffff16815260200160008152602001600081526020016000815260200160008152602001606081525090565b828054600181600116156101000203166002900490600052602060002090601f016020900481019282601f1061180f57805160ff191683800117855561183d565b8280016001018555821561183d579182015b8281111561183c578251825591602001919060010190611821565b5b50905061184a9190611896565b5090565b50805460018160011615610100020316600290046000825580601f106118745750611893565b601f0160209004906000526020600020908101906118929190611896565b5b50565b6118b891905b808211156118b457600081600090555060010161189c565b5090565b905600a165627a7a7230582055fd0f2dc5e41247569eda674d410e4130ad66015d3767db63c03e34c68c702b0029",
  "source": "pragma solidity ^0.4.24;\r\n\r\ncontract DCurator {\r\n    \r\n    // Token variables\r\n    address creator;\r\n    mapping(address => uint) private tokens;\r\n    \r\n    // Curator items\r\n    struct Item {\r\n        uint id;\r\n        string itemName;\r\n        string itemUrl;\r\n        string curatorName;\r\n        address supportAddress;\r\n        uint views; // views\r\n        uint votes; // count of votes\r\n        uint rank; // this is calculated rank based on views/votes\r\n        uint contentType; // default is 0 which is video\r\n\t\tstring ipfsHash;\r\n    }\r\n    \r\n    uint itemId;\r\n    mapping(uint => Item) items;\r\n    \r\n    constructor() public {\r\n        itemId = 0;\r\n        creator = msg.sender;\r\n        tokens[creator] = 10000;\r\n    }\r\n    \r\n    // validate input with \r\n    // CreateItem -> 1 test\r\n    function createItem(string _itemName, string _itemUrl, string _curatorName,\r\n        address _supportAddress, string _ipfsHash) external returns (uint) {  // TODO add input ipfs image\r\n        uint id = itemId++;\r\n        Item memory it = Item({id:id, itemName:_itemName, itemUrl:_itemUrl, curatorName:_curatorName, supportAddress: _supportAddress, \r\n        views: 0, votes: 0, rank: 5, contentType:0, ipfsHash: _ipfsHash});\r\n        items[it.id] = it;\r\n        return it.id;\r\n    }\r\n  \r\n    // Update vote -> 2 unit tests\r\n    function updateVote(uint id, bool _vote) external returns(uint256){\r\n        items[id].votes += 1;\r\n        uint delta = items[id].rank / items[id].votes;\r\n        uint256 newRank;\r\n        if(_vote) {\r\n            newRank = items[id].rank + delta;\r\n        } else {\r\n            newRank = items[id].rank - delta;\r\n        }\r\n        items[id].rank = newRank;\r\n\t\treturn newRank;\r\n    }\r\n    \r\n    // Return item by id\r\n    function getItemById(uint id) view public returns(uint, string, string, string, address, uint, uint, uint, uint, string) {\r\n        Item memory item = items[id];\r\n        return (id, item.itemName, item.itemUrl, item.curatorName, item.supportAddress, item.views, \r\n            item.votes, item.rank, item.contentType, item.ipfsHash );\r\n    }\r\n    \r\n    // Update item views\r\n    function updateViews(uint id) external {\r\n        items[id].views += 1;\r\n    }\r\n     \r\n    // getElementCount   \r\n    function getElementCount() public view returns(uint) {\r\n        return itemId;\r\n    }\r\n    \r\n    // delete item restrict to owner\r\n    function deleteItem(uint id) public  {\r\n        require(\r\n            msg.sender == items[id].supportAddress,\r\n            \"Only curator can delete it's item.\"\r\n        );\r\n        delete items[id];\r\n    }\r\n    \r\n    // getAllByCuratorName\r\n    function getAllByCuratorName(string name) public view returns(uint[]) {\r\n        int[] memory curatorItems = new int[](itemId);\r\n        for(uint i=0;i<itemId;i++) {\r\n            curatorItems[i] = -1;\r\n        }\r\n        \r\n        uint j = 0;\r\n        for(i=0;i<itemId;i++) {\r\n            if(keccak256(abi.encodePacked(items[i].curatorName)) == keccak256(abi.encodePacked(name))) {\r\n                curatorItems[i]=1;\r\n                j++;\r\n            }\r\n        }\r\n        \r\n        uint[] memory finalItems = new uint[](j);\r\n        j=0;\r\n        for(i=0; i<itemId; i++) {\r\n            if(curatorItems[i] != -1) {\r\n                finalItems[j++] = i;\r\n            }\r\n        }\r\n        return finalItems;\r\n    }\r\n    \r\n    \r\n    function transfer(address to, uint ammount) external returns (string) {\r\n        require(ammount > 0);\r\n        require(tokens[msg.sender] >= ammount);\r\n\t\t\r\n        tokens[to] += ammount;\r\n        tokens[creator] -= ammount;\r\n    }\r\n    \r\n    function requestTokens(uint ammount) external returns (string) {\r\n        require(ammount > 0);\r\n        require(tokens[creator] >= ammount);\r\n\t\t\r\n\t\ttokens[msg.sender] = tokens[msg.sender] + ammount;\r\n\t\ttokens[creator] = tokens[creator] - ammount; \r\n    }\r\n    \r\n    function getTokenAmmount(address adr) view external returns(uint) {\r\n        return tokens[adr];\r\n    }\r\n    \r\n    function getSupply() view external returns (uint) \r\n    {\r\n        return tokens[creator];\r\n    }\r\n    \r\n    function getCurrentTokens() view external returns (uint) \r\n    {\r\n        return tokens[msg.sender];\r\n    }\r\n}",
  "sourcePath": "C:\\dev\\workspaces\\blockchain-marketplace\\distributed-marketplace\\truffle\\contracts\\DCurator.sol",
  "compiler": {
    "name": "solc",
    "version": "0.4.24+commit.e67f0147.Emscripten.clang"
  },
  "schemaVersion": "2.0.1",
  "updatedAt": "2018-07-13T15:12:31.487Z"
}